:020000040800F2
:10000000B80A002005010008DF080008B107000851
:10001000B3070008E5060008B91600080000000054
:10002000000000000000000000000000D10E0008E9
:10003000E706000800000000E90D00089D12000816
:100040001F0100081F0100081F0100081F01000810
:100050001F0100081F0100081F0100081F01000800
:100060001F0100081F0100081F0100081F010008F0
:100070001F0100081F0100081F0100081F010008E0
:100080001F0100081F0100081F0100081F010008D0
:100090001F0100081F0100081F0100081F010008C0
:1000A0001F0100081F0100081F0100081F010008B0
:1000B0001F010008F11200081F0100081F010008BD
:1000C0001F0100081F0100081F0100081F01000890
:1000D0001F010008351500081F0100083B15000826
:1000E0001F0100081F0100081F010008DFF810D0E1
:1000F00000F0E6FA00480047951F0008AFF30080C3
:10010000B80A00200648804706480047FEE7FEE799
:10011000FEE7FEE7FEE7FEE7FEE7FEE7FEE7FEE7B7
:10012000A1120008ED000008D2B201E000F8012B96
:10013000491EFBD270470022F6E710B513460A4667
:1001400004461946FFF7F0FF204610BD421E12F884
:10015000013F002BFBD111F8013B02F8013B002BC2
:10016000F9D1704730B505462A460B4612F8010B07
:1001700013F8014B08B1A042F8D01CB1002802D0FE
:100180006D1CF1E7284630BD10B5002200E0521C7E
:10019000835C8C5CA34201D1002BF8D1D8B2E1B2D0
:1001A000401A10BD2DE9FE4F804681EA0300C00FC2
:1001B0000C46009021F0004123F00045B8EB02000E
:1001C000A94105D24046214690461C460B460246B0
:1001D00023F00040104347D0270DC7F30A00C3F3B4
:1001E0000A510290401A019040286BDAC3F31300C1
:1001F00040F4801B0098924620B10023D2EB030A02
:1002000063EB0B0B01985946C0F14002504600F0D9
:10021000B0F906460D4650465946019A00F0C8F915
:1002200010EB08006141002487EA115284EAE77369
:100230001A4340D0009A62B3019A012A4FEA07524A
:1002400015DC001B61EB02014FF0004202EA07528D
:10025000CDE90042001C41F5801132462B4600F0EA
:10026000C8F903B0BDE8F08F40462146F9E7001B0E
:1002700061EB0201001C41F5801300185B4120185E
:10028000A2F5001747EB030140EAD570B6196D419E
:1002900011E06D084FEA360645EAC0754FEA07528D
:1002A000001B61EB0201001C41F5801149084FEA77
:1002B00030000019514132462B4603B0BDE8F04FE3
:1002C00000F088B90098012240000023D0EB020220
:1002D00063EBE073009821464FEAE074B8EB00004E
:1002E00061EB0401E9E783F000435BE781F0004143
:1002F00058E72DE9FE4F81EA030404F0004421F0A1
:10030000004100944FF0000B23F0004350EA010439
:100310005ED052EA03045BD0C3F30A54C1F30A551A
:100320002C44A4F2F3340194A0FB0254C1F3130152
:1003300041F48011C3F3130343F4801301FB02441F
:1003400000FB034E840A970A44EA815447EA835724
:10035000A4FB076802958D0A05FB07854FEA932CDD
:1003600004FB0C542705029D4FEA065847EA16374E
:10037000B5EB08056EEB070C870E920E47EA811766
:1003800042EA8312A7FB0201B6EB0B0164EB000407
:100390002B0D43EA0C335E1844EB1C50DA465146F1
:1003A000E7FB0201C5F313044FEA0B3343EA14538E
:1003B0004FEA0432019C43EA0603A4F10C040294C0
:1003C000009CCDE900B400F014F903B0BDE8F08F53
:1003D00000200146F9E72DE9F04D81EA030404F01D
:1003E000004B21F0004514464FF0000A23F0004175
:1003F00050EA050220D054EA01021DD0C5F30A5785
:100400000246C5F31303C1F31300C1F30A5640F4C7
:10041000801543F48013A7EB0608101BD64608F29C
:10042000FD3873EB050002D308F1010801E09218D2
:100430005B41B8F1000F03DA00200146BDE8F08D02
:1004400000204FF48011064684460EE0171B73EB24
:10045000050705D3121B63EB050306434CEA010CA9
:1004600049084FEA300092185B4150EA0107EDD18C
:1004700052EA030012D082EA040083EA050108432D
:1004800005D0101BAB4106D20122002306E000225A
:100490004FF0004302E06FF0010253101AEB060028
:1004A0004CEB085110EB0A0041EB0B01BDE8F04D9D
:1004B00000F090B830B5041E71F1000404DB4FF079
:1004C0000044404264EB0101141E73F1000405DB9B
:1004D0001C464FF00043524263EB0403994208BFAD
:1004E000904230BD30B50B46014600202022012449
:1004F00009E021FA02F59D4205D303FA02F5491BF2
:1005000004FA02F52844151EA2F10102F1DC30BD07
:100510002DE9F05F0546002092469B468846064638
:10052000814640241BE0284641464746224600F0CB
:100530002FF853465A46C01A914110D31146184617
:10054000224600F016F82D1A67EB01084F462246A6
:100550000120002100F00DF817EB00094E41201E8C
:10056000A4F10104DFDC484631462A464346BDE893
:10057000F09F202A04DB203A00FA02F100207047A5
:100580009140C2F1200320FA03F3194390407047D1
:10059000202A04DB203A21FA02F00021704721FAD8
:1005A00002F3D040C2F1200291400843194670473F
:1005B000202A06DBCB17203A41FA02F043EAE07327
:1005C00006E041FA02F3D040C2F120029140084314
:1005D0001946704710B5141E73F1000408DA401C68
:1005E00041F1000192185B411A4301D120F0010052
:1005F00010BD2DE9F04D92469B4611B1B1FA81F242
:1006000002E0B0FA80F220329046FFF7B2FF0446D3
:100610000F4640EA0A0041EA0B0153465A46084396
:1006200013D0114653EA010019D0C8F140025046D8
:10063000FFF7AEFF05460E46504659464246FFF7C5
:1006400098FF084305D0012004E020463946BDE864
:10065000F08D0020054346EAE0762C4337430A98A4
:100660006305E40AA0EB08000022FD0A44EA4754AF
:100670000A3002D500200146E9E701051019694159
:10068000DDE9084500196941BDE8F04DA2E7C1F375
:100690000A52C1F3130140F2FF3341F480119A4230
:1006A00002DA00200146704740F233439A42A2F238
:1006B000334202DC5242FFF76BBFFFF75ABF000024
:1006C000064C074D06E0E06840F0010394E807009F
:1006D00098471034AC42F6D3FFF70CFD0C2300080A
:1006E0002C230008FEE770472DE9F0410022CC786A
:1006F00004F00F03E40601D58C7823430C784FF007
:100700000F0714F0FF0F4FF0010C1CD005680CFA16
:1007100002F40E882640A64211D1960007FA06F888
:1007200025EA080503FA06F848EA0505CE78282EDA
:1007300002D0482E02D002E0446100E00461521C65
:10074000082AE4D305600A88FF2A1ED945680022DA
:1007500002F108060CFA06F40E882640A64210D1D3
:10076000960007FA06F825EA080503FA06F848EAAB
:100770000505CE78282E00D14461CE78482E00D1D0
:100780000461521C082AE3D34560BDE8F0810246AB
:10079000002092680A4200D00120704741617047F2
:1007A00001617047002A01D00161704741617047C3
:1007B000FEE7FEE710B56FF04F042146022000F07F
:1007C00029F82146BDE81040032000F023B810B5F9
:1007D0004621022000F01EF84621BDE8104003200B
:1007E00000F018B808B50121042000F00DFB10201E
:1007F0008DF803007820ADF8000003208DF802008A
:1008000069460348FFF770FF00F09AFA08BD000040
:100810000008014070B50C461F4E6542022810D0FA
:10082000032837D1002C28DB20213046FFF7B8FF02
:1008300040213046FFF7B2FFA0B2BDE8704000F0A3
:10084000CEBA002C0CDB08213046FFF7A9FF10219F
:100850003046FFF7A3FFA0B2BDE8704000F0BABA7F
:1008600008213046FFF79AFF10213046FFF798FF26
:10087000A8B2BDE8704000F0ADBA20213046FFF7C5
:100880008DFF40213046FFF78BFFA8B2BDE87040D6
:1008900000F0A5BA70BD00000008014010B50021AD
:1008A0000220FFF7B7FF0021BDE810400320FFF74B
:1008B000B1BF10B550210320FFF7ACFF3C21BDE8CC
:1008C00010400220FFF7A6BF10B550210220FFF70D
:1008D000A1FF3C21BDE810400320FFF79BBF7047FC
:1008E00070B50F23C27801260178002A1ED0144A61
:1008F000126802F4E062C2F5E062120AC2F1040476
:10090000D3404578A54082781A402A43120101F16C
:10091000E02181F80024007800F01F018E4040099A
:10092000800000F1E020C0F8006170BD01F01F0000
:1009300086404809800000F1E020C0F8806170BD69
:100940000CED00E0024908430249086070470000CE
:100950000000FA050CED00E010B50021074C002264
:10096000002004EBC1131A54401CC0B28028FAD3F3
:10097000491CC9B20829F3D310BD00001C00002097
:100980002DE9F0417F2828D83F2926D88418802CCB
:1009900002D9C0F18002D2B2CC18402C02D9C1F1E8
:1009A0004003DBB201250E4E871801EB030812E06D
:1009B000044601F0070205FA02FCCA0806EBC2125F
:1009C00005E0135D23EA0C031355641CE4B2A7424F
:1009D000F7D8491CC9B28845EAD8BDE8F0810000C3
:1009E0001C00002038B500214FF47A720020401C12
:1009F0009042FCD3491C9142F8D30121082000F019
:100A000003FA14208DF8030003208DF802004FF440
:100A10008050ADF80000094C69462046FFF764FE9F
:100A20006114ADF8001069462046FFF75DFE012015
:100A300000F04CF9012000F051F938BD000C0140E4
:100A400070B505460024802626FA04F0284000D020
:100A5000012000F043F9012000F038F9002000F0F7
:100A600035F9641CE4B2082CEED3012000F02EF915
:100A7000BDE87040002000F029B910B5012000F059
:100A80002DF9012000F022F9002000F027F9BDE83F
:100A90001040002000F01AB910B5002000F01EF937
:100AA000012000F013F9BDE81040012000F016B954
:100AB00010B5FFF797FFAE2000F018F9D52000F031
:100AC00015F9802000F012F9A82000F00FF93F205E
:100AD00000F00CF9D32000F009F9002000F006F92D
:100AE000402000F003F9A12000F000F9C82000F038
:100AF000FDF8DA2000F0FAF8122000F0F7F8812073
:100B000000F0F4F8CF2000F0F1F8D92000F0EEF872
:100B1000F12000F0EBF8DB2000F0E8F8302000F0E6
:100B2000E5F8A42000F0E2F8A62000F0DFF88D2020
:100B300000F0DCF8142000F0D9F8AF2000F0D6F86F
:100B4000FFF70AFFBDE8104000F0ACB810B50C4646
:100B500040F0B00000F0CAF8102040EA141000F095
:100B6000C5F804F00F00BDE8104000F0BFB8000069
:100B70002DE9FC5F81468B469246002500200190BE
:100B80000026DFF870802EE001A948556D1CEDB2FB
:100B9000032D26D30025002406E0384601A9FFF7DF
:100BA000F3FA58B1641CE4B204EBC40008EB80070C
:100BB00011A13846FFF7E8FA0028EED1701C032196
:100BC000B0FBF1F004EBC40108EB8101401E091DEC
:100BD00009EB001010230091C0B21A46594600F0EC
:100BE0000DF8761CF6B21AF806000028CCD1BDE844
:100BF000FC9F000014210008000000002DE9F84FC0
:100C00008246894690461C46BAF17F0F45D8B9F115
:100C10003F0F42D82346424649465046FFF7B0FEB2
:100C20000025641EE01704EB5070012202EBE00087
:100C3000DFF86CC009F0070100902BE0002325E0ED
:100C40000AEB03047F2C23D805EBD906072E24D802
:100C50000A9805FB08F718440CEBC61217F800E0D9
:100C600012F804B00EFA01FE4BEA0E0B02F804B0C3
:100C7000761C072E08D80CEBC612385C165DC1F145
:100C80000807F840064316555B1CDBB24345D7D333
:100C90006D1CEDB20098A842D0DCBDE8F88F0000D2
:100CA0001C00002070B50024074D00212046FFF7EE
:100CB0004DFF05EBC410802100F029F8641CE4B25C
:100CC000082CF2D370BD00001C00002002464FF437
:100CD00080510148FFF766BD000C014002464FF409
:100CE00000510148FFF75EBD000C014010B50446FD
:100CF000FFF7C3FE7820FFF7A3FE0020FFF7A0FE5A
:100D00002046FFF79DFEBDE81040FFF7C5BE70B559
:100D100005460E46FFF7B1FE7820FFF791FE402012
:100D2000FFF78EFE002404E0285DFFF789FE641CB7
:100D3000E4B2B442F8D3BDE87040FFF7ADBE0000A6
:100D400030B589B00121084600F050F80121042097
:100D500000F05AF818208DF823000620ADF8200086
:100D600003208DF8220008A91948FFF7BDFC4FF0B9
:100D70008045284600F0F7FA0024ADF81A40ADF897
:100D800016406321ADF818102320ADF814008DF83B
:100D90001C4005A9284600F07FFB01A800F06EFB6F
:100DA0006020ADF80400ADF80C400120ADF806005D
:100DB000ADF80A4001A9284600F0DAFA01A9284650
:100DC00000F01AFB0121284600F0B5FA09B030BD49
:100DD0000008014001464FF0804000F059BB014639
:100DE0004FF0804000F056BB70470000054A0029D4
:100DF00003D0D1690143D1617047D1698143D16189
:100E00007047000000100240054A002903D0916994
:100E1000014391617047916981439161704700007E
:100E20000010024010B5264A516801F00C01254B14
:100E3000002927D0042927D0082927D0036051682A
:100E400001F0F0010909204B5C5C0168E140416060
:100E5000546804F4E064240A1C5D21FA04F48460FC
:100E6000546804F46054E40A1B5DD940C1605268C0
:100E700002F44042920B144B1B1F9A5CB1FBF2F13F
:100E8000016110BD0360DAE70360D8E7516801F43F
:100E90007011536803F48033022404EB914133B1A1
:100EA00053689B0307D5094B59430160C7E7074BBC
:100EB00059430160C3E7034B59430160BFE700009A
:100EC0000010024000127A000400002000093D00DA
:100ED000704700002DE9F04100260124304D40F21A
:100EE0002557012813D0032857D1DFF8B880394699
:100EF000404600F040FB01284FD1404600F0D4FBB3
:100F0000C2B2AB78284893B3012B39D03FE0DFF869
:100F10009C803946404600F02EFB01283DD14046DA
:100F200000F0C2FBC2B22B7833B11F489638012BB8
:100F300007D0022B0FD014E0402A12D12C706E7013
:100F40000FE00D2A04D06B78C2545B1C6B7008E074
:100F50000220287005E00A2A03D12E7069784654D1
:100F60002C7139464046BDE8F04100F0E9BA0D2A3F
:100F700004D0EB78C2545B1CEB7008E0AC7006E068
:100F80000A2A04D1AE70E97846546C71EE70394685
:100F90004046BDE8F04100F0D3BABDE8F081000062
:100FA0001400002000480040B20400200038014036
:100FB00000220B49012803D0032809D000207047E4
:100FC0000879012801D0002070470A71012070477C
:100FD0004879012801D0002070474A7101207047EC
:100FE0001400002030B587B001210420FFF70CFF6A
:100FF00001218803FFF708FF18208DF81B004FF42C
:101000000070ADF8180003248DF81A40204D06A991
:101010002846FFF769FB48218DF81B102915ADF80C
:1010200018108DF81A4006A92846FFF75DFB4FF40B
:10103000E13002900020ADF814000C21ADF8121040
:10104000ADF81000ADF80E00ADF80C00114C02A97F
:10105000204600F0CBFA012240F22551204600F054
:10106000AAFA4FF4A060FFF76DFC25218DF804105B
:1010700001218DF807108DF805108DF8061001A8D4
:10108000FFF72EFC0121204600F062FA07B030BDC8
:10109000000801400038014030B587B00121082028
:1010A000FFF7B2FE01218804FFF7A0FE18208DF89B
:1010B0001B004FF48060ADF8180003248DF81A402F
:1010C000204D06A92846FFF70FFB48218DF81B107D
:1010D000E914ADF818108DF81A4006A92846FFF754
:1010E00003FB4FF4E13002900020ADF814000C2116
:1010F000ADF81210ADF81000ADF80E00ADF80C0010
:10110000114C02A9204600F071FA012240F225514B
:10111000204600F050FA4FF4A060FFF713FC27219F
:101120008DF8041001218DF807108DF805108DF849
:10113000061001A8FFF7D4FB0121204600F008FAB1
:1011400007B030BD000C014000480040AFF3008004
:101150000CB50022019200922748016841F48031C9
:1011600001604FF4A063016801F40031009101991E
:10117000491C0191009911B901999942F3D1016873
:10118000890302D50121009100E000920099012914
:1011900030D11A490A6842F010020A600A6822F047
:1011A00003020A600A6842F002020A604168416074
:1011B00041684160416841F480614160416821F4C7
:1011C0007C114160416841F4E8114160016841F0DF
:1011D0008071016001688901FCD5416821F003013B
:1011E0004160416841F0020141604168C1F3810101
:1011F0000229FAD10CBD000000100240002002407C
:101200000FB430B5A7B005460C46982101A8FEF7EB
:1012100092FF2DAA01A82C9900F050FA002200920A
:10122000012C03D105A101A8FEF790FF01A92846D2
:1012300000F026F827B030BC5DF814FB0D0A000062
:1012400010B501280CD0032809D10B4C204600F022
:101250002FFA8021204600F087F90028F9D010BD30
:10126000064C204600F024FA8021204600F07CF94C
:101270000028F9D010BD00000048004000380140AF
:1012800070B506460D46002404E03046FFF7D8FF4F
:10129000641CE4B2295D0029F7D170BD70470000DD
:1012A00010B50F48016841F00101016041680D4A25
:1012B0001140416001680C4A11400160016821F44D
:1012C00080210160416821F4FE0141604FF41F015B
:1012D0008160FFF73BFF05494FF00060086010BDDB
:1012E000001002400000FFF8FFFFF6FE08ED00E0EE
:1012F00010B50C4C0121204600F029F801280FD12F
:1013000010210948FFF743FA012803D10748018853
:10131000491C01802046BDE81040012100F008B8BA
:1013200010BD000000040040000C01401A00002025
:10133000C94301827047002904D0018841F00101AE
:1013400001807047018821F0010101807047024649
:101350000020138A0B4092890A40002B02D0002AF9
:1013600000D001207047018921F0070101817047F9
:1013700070B5028C22F010020284028C8388048BE8
:1013800024F4E04424F440760D884FF6FF7404EA18
:101390000525354322F020020E8904EA061616437D
:1013A0004A8804EA02123243114EB04202D0114E72
:1013B000B04217D122F080024E8904EA0616164385
:1013C00026F040068A8804EA0212324323F480633E
:1013D00023F400638E8904EA86061E43CB8904EA5F
:1013E0008303334383800583C9880187028470BDEA
:1013F000002C01400034014070B5028C22F4807250
:101400000284028C8388848B24F0700424F003040B
:101410000D88254322F400720E894FF6FF7404EA0A
:10142000062616434A8804EA02223243114EB0428D
:1014300002D0114EB04217D122F400664A8904EA64
:101440000222324322F480668A8804EA022232436E
:1014500023F4805323F400538E8904EA06161E43B6
:10146000CB8904EA0313334383808583C98881874A
:10147000028470BD002C0140003401400021018035
:1014800041808180C180018141818181C18170471A
:10149000018770478187704730B502881B4C1C4D0F
:1014A000A0420DD0A8420BD0B0F1804F08D0194B0C
:1014B000984205D0184B984202D0184B984203D15D
:1014C00022F070034A881A43154B984206D0154BF8
:1014D000984203D022F44073CA881A4302808A8853
:1014E00082850A880285A0420AD0A84208D00E4A06
:1014F000904205D00D4A904202D00D4A904201D14F
:10150000097A01860121818230BD0000002C014052
:10151000003401400004004000080040000C00407E
:101520000010004000140040004001400044014011
:10153000004801400120FFF7CDBC0320FFF7CABCE3
:1015400040F66A120A0A01219140C943018070479E
:10155000002904D0818941F400518181704781893B
:1015600021F40051818170470246002012880A420E
:1015700000D00120704770B5002440F66A12C1F314
:10158000421301F01F05012606FA05F2012B0CD0CB
:10159000022B0DD0838A1340090A8E400088304008
:1015A0000BB100B10124204670BD83891340F3E7DD
:1015B000038A1340F0E710B540F66A13C1F34213F3
:1015C00001F01F040121A140012B07D0022B07D0FD
:1015D00014303AB102680A43026010BD0C30F8E7DB
:1015E0001030F6E702688A43026010BD30B585B05E
:1015F00004460D46208A4CF6FF710840E9880143F5
:101600002182A0894EF6F3110840A9882A89114346
:101610006A8902431143A181A08A4FF6FF41084025
:10162000A9890143A1826846FFF7FCFB1D4884425B
:1016300001D1039800E00298A189090408D500EBC4
:10164000C00101EB001029684900B0FBF1F007E090
:1016500000EBC00101EB001029688900B0FBF1F03C
:101660006422B0FBF2F109010B096FF018056B431E
:1016700000EB8300A3891D044FF0320307D503EB71
:10168000C000B0FBF2F000F00700084306E003EBF7
:101690000010B0FBF2F000F00F000843208105B00D
:1016A00030BD0000003801408088C0F3080070475A
:1016B000C1F3080181807047FEE7000037B514468A
:1016C0000846064B6A46214600F0DCF804466946A7
:1016D000002000F05AFC20463EBD00008B1F000891
:1016E00002E008C8121F08C1002AFAD170477047EB
:1016F000002001E001C1121F002AFBD17047000049
:101700002DE9FF5F82B00021DDE90430020DDDF834
:1017100040B0034318D044F61050A2F2FF324243C7
:101720001514119801281FD0A5EB0B00401C5FEA8F
:10173000000A4FF000064E4FDFF83891B046504691
:1017400015D5CAF1000413E0119801244AA3012819
:1017500001D16FEA0B010298119AC0E90031C0E98A
:10176000024206B0BDE8F09FCBF10000DFE704467F
:101770000021404A491842EB0450CDE9001012E024
:10178000E00707D032463B4640464946FEF7B1FDEA
:101790008046894632463B4610461946FEF7A9FD6B
:1017A00006460F466410002CEAD1DDE90401DDE9AC
:1017B0000023BAF1000F06DAFEF79BFD42464B46C6
:1017C000FEF797FD05E0FEF706FE42464B46FEF7A4
:1017D00002FE04460E460022284BFEF76BFE03D89D
:1017E0004FF0FF30014607E00022254B20463146EE
:1017F000FEF7D8FCFEF74BFF102409E0002C0ADBB3
:101800000A220023FEF784FE039B30321A55641E21
:1018100050EA0102F2D1641C039AC4F1110314448A
:10182000119A012A03D0012208430DD10AE008438E
:1018300004D000204FF0110B119072E7A3EB0B05C1
:101840006D1E0DE05B4504DD4FF0000205F1010562
:1018500004E003DA4FF00002A5F10105002AECD004
:1018600002981199C0E90231C0E9004579E700000A
:10187000000014400000F03F300000000000F04382
:101880000000E03F2DE9FF4F95B09A468846064696
:101890000025EEE1252877D100242746F94A0121C9
:1018A000039400E0044316F8013F203B01FA03F0E3
:1018B0001042F7D130782A2811D06FF02F033078FA
:1018C000A0F13002092A16D8039A44F0020402EB70
:1018D000820203EB42021044761C0390EFE758F8B3
:1018E000042B0392002A03DA504244F4005403907C
:1018F00044F00204761C30782E2816D116F8010F19
:1019000044F004042A280DD06FF02F023078A0F1A3
:101910003003092B09D807EB870302EB4303C718F1
:10192000761CF3E758F8047B761C30786C280FD0CF
:1019300006DC4C2817D068280DD06A2814D104E0A2
:10194000742810D07A280FD10DE044F400140AE076
:1019500044F4801401E044F440147278824202D1CD
:1019600004F58014761C761C307866280BD013DCC6
:10197000582877D009DC002875D04528F6D04628AD
:10198000F4D047281AD193E118E0632835D06428B1
:1019900079D0652812D18BE1702873D008DC6728D4
:1019A000F1D069286FD06E280DD06F2806D1ACE039
:1019B00073282CD0752874D0782853D052461799A4
:1019C00090476D1C54E1C4F30250022809D003284B
:1019D0000DD0D8F8001004280DD00D6008F10408CF
:1019E00046E1D8F80010EA17C1E90052F6E7D8F846
:1019F00000100D80F2E70D70F0E718F8041B8DF869
:101A0000001000208DF80100EB46012003E058F89B
:101A100004BB4FF0FF3061074FF0000102D40DE02E
:101A200009F101018946B9420FDA8145F8DB1BF85B
:101A300009100029F4D108E009F101018946814229
:101A4000FADB1BF809100029F6D103985346A0EBE6
:101A5000090721463846179A00F080FA284400EB1F
:101A6000090507E044E008E10DE01BF8010B5246D0
:101A700017999047B9F10109F7D2534621463846E4
:101A8000179AF2E039E00A21C4F302524FF0000B3A
:101A90000091022A06D058F8040BC117032A09D076
:101AA0000AE023E008F1070020F00702F2E8020153
:101AB000904605E000B2C117042A01D140B2C11717
:101AC000002906DA0A460021404261EB02012D227C
:101AD00002E0220504D52B228DF80420012203E028
:101AE000E20701D02022F7E7914657E00A2100E003
:101AF00010214FF0000B00910BE010214FF0000B74
:101B000044F004040827009103E008204FF0000B84
:101B10000090C4F30252022A05D058F8040B0021A9
:101B2000032A08D008E008F1070020F00702F2E8D5
:101B30000201904603E080B2042A00D1C0B24FF007
:101B4000000922072AD53278702A07D0DDF800C0B4
:101B50008CF0100C5CEA0B0C05D00EE040228DF8E6
:101B60000420012208E050EA010306D030238DF85A
:101B700004308DF8052002229146009B83F0080373
:101B800053EA0B030AD150EA010201D1620705D5DD
:101B900030228DF804204FF001097F1E3278582A38
:101BA00004D039A20C920CAA02920BE03BA2F9E7F6
:101BB0005B46009AFEF7ACFC0C9B9B5C029A521EA3
:101BC0000292137050EA0102F2D1029804A9081A95
:101BD00000F1200B600702D524F4803400E00127D7
:101BE0005F4502DDA7EB0B0000E0002000EB0B01DE
:101BF000009003984944401A0390E00306D45346EA
:101C00002146179A039800F0A9F90544002706E039
:101C100001A85246C05D179990476D1C7F1C4F4527
:101C2000F6DBE0030CD553462146179A039800F0E3
:101C300095F9054404E030205246179990476D1CF1
:101C40000099481E00900029F5DC08E002980299EE
:101C500052460078491C0291179990476D1CBBF1C0
:101C60000001ABF1010BF1DC5BE100F065F905442B
:101C7000761C307800287FF40DAE19B02846BDE8F8
:101C8000F08F000009280100303132333435363707
:101C900038396162636465660000000030313233B8
:101CA0003435363738394142434445460000000058
:101CB000600700D4062708F1070020F00700F0E8CD
:101CC0000223804603F0004C5FEA0C0001D097A08D
:101CD00009E0200501D596A005E0E00701D095A018
:101CE00001E0AFF24C001390307823F000436528F8
:101CF0000CD006DC452809D046281DD047287FD1C6
:101D00003BE0662818D067287AD136E00021112FF1
:101D100001DB112000E0781CCDE9000104A90CA82A
:101D2000FFF7EEFCDDE90D010C9A4FF0000B07F117
:101D30000109109200914EE04FF000400097CDE96C
:101D4000011004A90CA8FFF7DBFCDDE90D020C9BD8
:101D50000F994FF0000B91461093009211B9791C26
:101D600000EB0109B7EB090003D4C0F1FF3B07F119
:101D70000109A9EB0700019042E0012F00DA0127D9
:101D80000021112F01DD112000E03846CDE90001CE
:101D900004A90CA8FFF7B4FCDDE90D010C9A009131
:101DA0004FF0000BB946109221070FD4009A4A4514
:101DB00003DA914601E0A9F10109B9F1010F05DD4E
:101DC000109AA9F10101515C3029F4D0B84202DA2D
:101DD00010F1040F03DA0121CDE9011010E0002811
:101DE00003DC8344A9EB000102E0411C494500DD0E
:101DF0008946A0EB0B00401C01904FF00040029080
:101E0000200705D40198484502DB4FF0FF300190D0
:101E100000208DF84B0002980DF14B07B0F1004FF8
:101E200025D002200C902B200D90029800280CDA6F
:101E3000404202902D200D9007E00A210298FEF703
:101E400051FB3031029007F8011D0C99481E0C908F
:101E50000029F2DC02980028EFD1791E0D98087055
:101E6000307800F0200040F0450007F8020D11A87E
:101E7000C01BC01D02901398007800B1012000EB38
:101E80000901019801EBE071029801440398401A9E
:101E9000401E0390E00306D453462146179A039848
:101EA00000F05CF805441398007818B15246179971
:101EB00090476D1CE00323D553462146179A03989B
:101EC00000F04CF805441BE0BBF1000F07DB009865
:101ED000584504DD1098179910F80B0001E0179988
:101EE00030205246904701980BF1010B401E05F13E
:101EF0000105019004D12E205246179990476D1C80
:101F0000B9F10001A9F10109DEDC05E017F8010BC8
:101F10005246179990476D1C0299481E029000295D
:101F2000F4DC53462146179A03989EE62D000000E4
:101F30002B000000200000002DE9F04104460025A0
:101F40001E461746880404D405E039462020B047D1
:101F50006D1C641EF9D52846BDE8F0812DE9F041DD
:101F6000044600251E469046C80301D5302700E0F0
:101F70002027880404D505E041463846B0476D1C4B
:101F8000641EF9D52846BDE8F0810A68531C0B6031
:101F90001070704708B5FEF78BFDFEF723FCFFF7C6
:101FA00021F8FFF779F800213EA20846FEF7E0FD90
:101FB00001210820FEF728FF10208DF803004020A3
:101FC000ADF8000003208DF80200394C6946204628
:101FD000FEF78AFB40212046FEF7E0FBFEF762FE9B
:101FE0000120FEF7E5FFA8B132A200210120FFF792
:101FF00007F90121314B32A20846FFF701F931A15F
:102000002E48FEF7AFF828B12C4B2DA2012103205A
:10201000FFF7F6F80320FEF7CBFF0028E0D02AA157
:102020002B48FEF79FF810B1FEF7D1FBD8E729A1A6
:102030002748FEF797F810B1FEF7BCFBD0E728A1C0
:102040002348FEF78FF810B1FEF728FCC8E726A159
:102050001F48FEF787F810B1FEF72BFCC0E725A15B
:102060001B48FEF77FF810B1FEF72EFCB8E724A15D
:102070001748FEF777F848B140212046FEF78EFB5F
:1020800021A200210120FFF7BBF8A9E71FA11048FA
:10209000FEF768F80028A3D040212046FEF780FB19
:1020A0009EE70000E6A8A1E5BC8FEFBC9A00000007
:1020B000000C01405265733A000000001C0400202F
:1020C0002573000041540000666F727761726400EE
:1020D000B20400206261636B7761726400000000EB
:1020E00073746F70000000006C65667477617264D1
:1020F0000000000072696768747761726400000014
:102100004C45445F4F4E0000796573004C45445F79
:102110004F464600E6A8A1001010D0FF9014E4AF8F
:10212000A4A4A4AFE4040000040300FF00894B2A28
:102130001A0E1A2A4B888000E5BC8F001010909070
:102140009090901010FF10101116100000206020C9
:102150003F10101000030C102040F800E981A5008A
:10216000404042CC00004A32222AF121312D0000A9
:102170000080403F408081BDA1A1BFA1A1BD8100E1
:10218000E68EA700101010FF9020984828090E280E
:1021900048A818000242817F0040404242427E42ED
:1021A00042424000E5AE9A00100C4444444445C607
:1021B0004444444444140C008040201E2040407F8E
:1021C0004444444444404000E8B79D00003E22E2BD
:1021D000223E00FE2222222222E20200203F201F75
:1021E0001111007F4444444444474000E8B79F0035
:1021F000003E22E2223E00FE92929292FE000000F9
:10220000203F201F111100FF40230C1422414000E9
:10221000E99A8F0000FE225A8608104424F42C27E5
:1022200024E4040000FF040887413F4080BF8595F7
:10223000A59F8000E887AA00000000F8888C8A89A2
:10224000888888F800000000000000FF44444444EF
:10225000444444FF00000000E58AA8004044C44410
:102260004444401010FF101010F00000103C1310F8
:1022700014B840300E014080403F0000E981BF00AB
:102280004042CC00807E22223E005465C664540049
:1022900040201F22415F49495F4042425F42420065
:1022A000E99A9C0000FE0222DA0610D2565A535ACE
:1022B00056D2100000FF0810080710171515FD155D
:1022C00015171000EFBC9A0000000000000000008D
:1022D0000000000000000000000036360000000092
:1022E000000000000000000000000000FF010101EC
:1022F0003109090909897101010101FFFF8080800D
:102300008080809681808080808080FF2C230008E0
:10231000000000201C000000E01600084823000810
:102320001C0000209C0A0000F016000802040608A9
:10233000000000000102030401020304060708096B
:08234000000000000000000095
:04000005080000ED02
:00000001FF
